{"abi":[{"type":"constructor","inputs":[{"name":"_usdt","type":"address","internalType":"address"},{"name":"_agent","type":"address","internalType":"address"}],"stateMutability":"nonpayable"},{"type":"function","name":"USDT","inputs":[],"outputs":[{"name":"","type":"address","internalType":"address"}],"stateMutability":"view"},{"type":"function","name":"agent","inputs":[],"outputs":[{"name":"","type":"address","internalType":"address"}],"stateMutability":"view"},{"type":"function","name":"cancel","inputs":[{"name":"escrowId","type":"bytes32","internalType":"bytes32"}],"outputs":[],"stateMutability":"nonpayable"},{"type":"function","name":"deposit","inputs":[{"name":"escrowId","type":"bytes32","internalType":"bytes32"},{"name":"seller","type":"address","internalType":"address"},{"name":"amount","type":"uint256","internalType":"uint256"}],"outputs":[],"stateMutability":"nonpayable"},{"type":"function","name":"escrows","inputs":[{"name":"","type":"bytes32","internalType":"bytes32"}],"outputs":[{"name":"buyer","type":"address","internalType":"address"},{"name":"seller","type":"address","internalType":"address"},{"name":"amount","type":"uint256","internalType":"uint256"},{"name":"settled","type":"bool","internalType":"bool"},{"name":"cancelled","type":"bool","internalType":"bool"}],"stateMutability":"view"},{"type":"function","name":"getEscrow","inputs":[{"name":"escrowId","type":"bytes32","internalType":"bytes32"}],"outputs":[{"name":"","type":"tuple","internalType":"struct ConfidentialEscrow.Escrow","components":[{"name":"buyer","type":"address","internalType":"address"},{"name":"seller","type":"address","internalType":"address"},{"name":"amount","type":"uint256","internalType":"uint256"},{"name":"settled","type":"bool","internalType":"bool"},{"name":"cancelled","type":"bool","internalType":"bool"}]}],"stateMutability":"view"},{"type":"function","name":"settle","inputs":[{"name":"escrowId","type":"bytes32","internalType":"bytes32"},{"name":"attestation","type":"bytes","internalType":"bytes"}],"outputs":[],"stateMutability":"nonpayable"},{"type":"event","name":"EscrowCancelled","inputs":[{"name":"escrowId","type":"bytes32","indexed":true,"internalType":"bytes32"},{"name":"refundedTo","type":"address","indexed":false,"internalType":"address"},{"name":"amount","type":"uint256","indexed":false,"internalType":"uint256"}],"anonymous":false},{"type":"event","name":"EscrowCreated","inputs":[{"name":"escrowId","type":"bytes32","indexed":true,"internalType":"bytes32"},{"name":"buyer","type":"address","indexed":true,"internalType":"address"},{"name":"seller","type":"address","indexed":true,"internalType":"address"},{"name":"amount","type":"uint256","indexed":false,"internalType":"uint256"}],"anonymous":false},{"type":"event","name":"EscrowSettled","inputs":[{"name":"escrowId","type":"bytes32","indexed":true,"internalType":"bytes32"},{"name":"attestation","type":"bytes","indexed":false,"internalType":"bytes"},{"name":"amount","type":"uint256","indexed":false,"internalType":"uint256"}],"anonymous":false},{"type":"error","name":"EscrowAlreadyExists","inputs":[{"name":"escrowId","type":"bytes32","internalType":"bytes32"}]},{"type":"error","name":"EscrowAlreadyFinalized","inputs":[{"name":"escrowId","type":"bytes32","internalType":"bytes32"}]},{"type":"error","name":"EscrowNotFound","inputs":[{"name":"escrowId","type":"bytes32","internalType":"bytes32"}]},{"type":"error","name":"TransferFailed","inputs":[]},{"type":"error","name":"Unauthorized","inputs":[]}],"bytecode":{"object":"0x60c060405234801561000f575f80fd5b50604051610adc380380610adc83398101604081905261002e916100ea565b6001600160a01b0382166100755760405162461bcd60e51b81526020600482015260096024820152681e995c9bc81d5cd91d60ba1b60448201526064015b60405180910390fd5b6001600160a01b0381166100b85760405162461bcd60e51b815260206004820152600a6024820152691e995c9bc81859d95b9d60b21b604482015260640161006c565b6001600160a01b039182166080521660a05261011b565b80516001600160a01b03811681146100e5575f80fd5b919050565b5f80604083850312156100fb575f80fd5b610104836100cf565b9150610112602084016100cf565b90509250929050565b60805160a05161097d61015f5f395f81816102700152818161029d01526104bc01525f8181610134015281816103950152818161057801526106ac015261097d5ff3fe608060405234801561000f575f80fd5b506004361061007a575f3560e01c8063c54e44eb11610058578063c54e44eb1461012f578063d954863c1461016e578063f023b81114610181578063f5ff5c761461026b575f80fd5b80632d83549c1461007e5780632eb4233214610107578063c4d252f51461011c575b5f80fd5b6100cb61008c36600461081e565b5f6020819052908152604090208054600182015460028301546003909301546001600160a01b0392831693919092169160ff8082169161010090041685565b604080516001600160a01b03968716815295909416602086015292840191909152151560608301521515608082015260a0015b60405180910390f35b61011a610115366004610835565b610292565b005b61011a61012a36600461081e565b610464565b6101567f000000000000000000000000000000000000000000000000000000000000000081565b6040516001600160a01b0390911681526020016100fe565b61011a61017c3660046108aa565b610652565b61021c61018f36600461081e565b6040805160a0810182525f80825260208201819052918101829052606081018290526080810191909152505f9081526020818152604091829020825160a08101845281546001600160a01b0390811682526001830154169281019290925260028101549282019290925260039091015460ff80821615156060840152610100909104161515608082015290565b6040516100fe919081516001600160a01b039081168252602080840151909116908201526040808301519082015260608083015115159082015260809182015115159181019190915260a00190565b6101567f000000000000000000000000000000000000000000000000000000000000000081565b336001600160a01b037f000000000000000000000000000000000000000000000000000000000000000016146102da576040516282b42960e81b815260040160405180910390fd5b5f83815260208190526040902080546001600160a01b0316610317576040516319c6c68b60e11b8152600481018590526024015b60405180910390fd5b600381015460ff168061033357506003810154610100900460ff165b1561035457604051635cfa570760e11b81526004810185905260240161030e565b60038101805460ff19166001908117909155810154600282015460405163a9059cbb60e01b81526001600160a01b03928316600482015260248101919091527f00000000000000000000000000000000000000000000000000000000000000009091169063a9059cbb906044016020604051808303815f875af11580156103dd573d5f803e3d5ffd5b505050506040513d601f19601f8201168201806040525081019061040191906108ea565b61041e576040516312171d8360e31b815260040160405180910390fd5b837f57a9df9768329c72c096824488218a3358717b626c61fcdd31da8e8170a520308484846002015460405161045693929190610910565b60405180910390a250505050565b5f81815260208190526040902080546001600160a01b031661049c576040516319c6c68b60e11b81526004810183905260240161030e565b80546001600160a01b031633148015906104df5750336001600160a01b037f00000000000000000000000000000000000000000000000000000000000000001614155b156104fc576040516282b42960e81b815260040160405180910390fd5b600381015460ff168061051857506003810154610100900460ff165b1561053957604051635cfa570760e11b81526004810183905260240161030e565b60038101805461ff0019166101001790558054600282015460405163a9059cbb60e01b81526001600160a01b03928316600482015260248101919091527f00000000000000000000000000000000000000000000000000000000000000009091169063a9059cbb906044016020604051808303815f875af11580156105c0573d5f803e3d5ffd5b505050506040513d601f19601f820116820180604052508101906105e491906108ea565b610601576040516312171d8360e31b815260040160405180910390fd5b80546002820154604080516001600160a01b039093168352602083019190915283917fcd3d52b315a39e30f68b05b9bbd077363df8a2182402ed6e7f75c3a03ef929c5910160405180910390a25050565b5f838152602081905260409020546001600160a01b03161561068a576040516313a4c78f60e21b81526004810184905260240161030e565b6040516323b872dd60e01b8152336004820152306024820152604481018290527f00000000000000000000000000000000000000000000000000000000000000006001600160a01b0316906323b872dd906064016020604051808303815f875af11580156106fa573d5f803e3d5ffd5b505050506040513d601f19601f8201168201806040525081019061071e91906108ea565b61073b576040516312171d8360e31b815260040160405180910390fd5b6040805160a081018252338082526001600160a01b0385811660208085018281528587018881525f60608801818152608089018281528d83529482905290899020975188549087166001600160a01b031991821617895592516001890180549190971693169290921790945592516002860155915160039094018054925115156101000261ff00199515159590951661ffff1990931692909217939093179055915190919085907f0dd968c277d9dc6b36b6ec2b638324c3d937882c64ca109440bc050ebf26cb07906108119086815260200190565b60405180910390a4505050565b5f6020828403121561082e575f80fd5b5035919050565b5f805f60408486031215610847575f80fd5b83359250602084013567ffffffffffffffff80821115610865575f80fd5b818601915086601f830112610878575f80fd5b813581811115610886575f80fd5b876020828501011115610897575f80fd5b6020830194508093505050509250925092565b5f805f606084860312156108bc575f80fd5b8335925060208401356001600160a01b03811681146108d9575f80fd5b929592945050506040919091013590565b5f602082840312156108fa575f80fd5b81518015158114610909575f80fd5b9392505050565b60408152826040820152828460608301375f606084830101525f6060601f19601f860116830101905082602083015294935050505056fea2646970667358221220b6b3f5e539fc6d492a6ca73cfb448a62a5c1f0110e897fbf15ae479440b3cfd364736f6c63430008140033","linkReferences":{}},"methodIdentifiers":{"USDT()":"c54e44eb","agent()":"f5ff5c76","cancel(bytes32)":"c4d252f5","deposit(bytes32,address,uint256)":"d954863c","escrows(bytes32)":"2d83549c","getEscrow(bytes32)":"f023b811","settle(bytes32,bytes)":"2eb42332"},"id":0}